:100000000200553200000000000000320000000035
:10001000000000320000000000000032000000007C
:100020000000003200000000000000000000C39546
:10003000F02212002E60044002E422740122C0E08B
:10004000741B1470FDD0E0002278C87902D8FED964
:10005000FCD5E0F522787FE4F6D8FD758125752082
:1000600000D290D2B0D2B1D2B2D2B3D205C2B4C211
:10007000B5C2B7A205920450030200A4A2B3920431
:1000800050030200A4C2B2740A114911C5113E31D5
:100090000C74321149A290920450030200A4C2B120
:1000A000C2B0D205A205920440030200BEA2B392E0
:1000B0000440030200BED2B2D2B1D2B0C2050200E7
:1000C00073C2AF80FE9001708582238583247522E0
:1000D0000175F010E52211327003020109852382B7
:1000E0008524837821E493A3858223858324F6E500
:1000F00021B4010280030200FE3153020100315F8E
:100100000522E52260030200D1316622900180853C
:10011000822385832475220175F013E52211327044
:10012000030201508523828524837821E493A385EB
:100130008223858324F6E521B40102800302014570
:100140003153020147315F0522E5226003020118A5
:10015000316622D2B700D2B500C2B500C2B722D2F2
:10016000B500C2B5002200D2B400C2B400C2B722AA
:10017000010000000100000000000000000000017C
:10018000000000010001010001000100000000006A
:10019000000000000000000000000000000000005F
:00000001FF
